:03000000020DBF2F
:0C0DBF00787FE4F6D8FD758116020DB1B6
:100CCE0007010801090107010701080109010701D0
:100CDE0009010A010B0209010A010B020B010C01A9
:100CEE000B010A01090207020B010C010B010A019B
:100CFE000902070208020402070215020802040292
:060D0E00070215021500AA
:0E0DB100120DCB7BFF7A0C79CE120D1480F55B
:050DD100C2C9C2CA22E4
:100D7C00AD07AC068CCDEDF5CCD2CA30CFFDC2CFD1
:030D8C00C2CA22B6
:100DA100EFF4FFEEF4FEEF2401FFE43EFE020D7CC2
:100D4D00AD07AC06E4120A037BFA7AED796B783FB6
:100D5D001208F8E4FBFAF9783F120807120A3CEF83
:0F0D6D00F4FFEEF4FEEF2401FFE43EFE020D7CE6
:100C7A0001060126014A015D018801B801EE020B55
:100C8A00024B029302BA0310037003DC04160497A2
:100C9A0005260575062006E007AFF922F9E1FA8C68
:100CAA00FAD8FB69FBE9FC5BFC8FFCF0FD45FD6CA7
:100CBA00FDB5FDF5FE2EFE47FE78FEA3FEB7FEDB70
:040CCA00FEFAFF1619
:060DCB00120DD1D2A2229C
:100D8F008E158F16C2A2120D7CD2A2AF16AE15020F
:020D9F000D7CC9
:100BD300E50E7002C322E50D64156061E50D25E0A5
:100BE30024A4F582E4340CF583E493F50F740193A4
:100BF300F510E50D25E0247AF582E4340CF583E461
:100C030093FC740193FDAF0E7E00120BB3EEC3137E
:100C1300F511EF13F512E4F513F514C3E51495126A
:100C2300E5116480F8E5136480985049AF10AE0F66
:100C3300120D8F0514E51470E2051380DE750F4C59
:100C4300751000E50E75F00AA485F011F512E4F5B0
:100C530013F514C3E5149512E5116480F8E51364E4
:100C630080985011AF10AE0F120D7C0514E514706F
:060C7300E2051380DED350
:010C79002258
:060D14008B088A09890A20
:100D1A00E4F50BF50C050CE50CAE0B7002050B1493
:100D2A0025E0FFEE33FEAB08E50A2FF9E5093EFAA6
:100D3A00780D7C007D007E007F02120B8D120BD392
:020D4A0040D394
:010D4C002284
:10080000020AA8E86480F8E933E83360110460F074
:10081000ED33EC337009E8FCE9FDEAFEEBFF22045E
:1008200060DED3EB9FEA9EE99DE8C2E78CF0C2F759
:1008300095F0400CE8CCF8E9CDF9EACEFAEBCFFB25
:10084000120A7385D0F05804700320D5B3E8047001
:10085000075002B2D5020AB292D5EC0460F7E4CC9C
:10086000C0E0C398F8603B94186008400DD0E0FBEE
:10087000020A8AE4FBFAC9FC8028E830E406E4C9ED
:10088000FBE4CAFCE830E305E4C9CACBFCE8540742
:100890006010F8C3E913F9EA13FAEB13FBEC13FC4D
:1008A000D8F130F52FC3E49CFCEF9BFFEE9AFEEDF0
:1008B00099FDD0E0FBEF4E4D4C701222DB03020A93
:1008C000AFEC2CFCEF33FFEE33FEED33FDED30E704
:1008D000EB020A8AEF2BFFEE3AFEED39FDD0E0FB8A
:1008E00050130BBB0003020AB2ED13FDEE13FEEF33
:0808F00013FFEC13FC020A8A5D
:1008F800EC4D6011E8497017ED33EC3304600DE4FA
:10090800FCFFFEFD22E933E8330470F8020AA8125E
:100918000A7358046009E4CC24815006285009025F
:100928000AB2284003020AAFC0E0EB4A7044B9801B
:1009380006D0E0FB020A9EEF4E701CBD8008EBFF5C
:10094800EAFEE9FD80EBE98DF0A4FEE5F00209E19D
:10095800E9CDF9EAFEEBFFEF89F0A4FCE5F0CE89DA
:10096800F0A42EFFE435F0CD89F0A42DFEE435F097
:100978008067EF4E7005BD80D780C3EF8BF0A4ACC5
:10098800F0EE8BF0A42CFCE435F0F8EF8AF0A42C00
:10099800E5F038FCE433CB8DF0A42CFCE5F03BF813
:1009A800EE8AF0A42CFCE5F038F8E433CF89F0A403
:1009B8002CFCE5F038CF3400CE89F0A42FFFE5F009
:1009C8003EFEE433C98DF0A42EFEE5F039CD8AF061
:1009D800A42FFFE5F03EFEE43DFD33D0E0FB5007D9
:1009E8000BBB000F020AB2EC2CFCEF33FFEE33FE18
:0609F800ED33FD020A8A46
:1009FE0075F020800E75F010800575F0087D007E74
:100A0E00007F003392D530D503120BC5EC33401066
:100A1E00EF33FFEE33FEED33FDEC33FCD5F0ED227C
:0E0A2E00E5F0247EA2D513CC92E7CDCEFF22B8
:100A3C00EDD2E7CD33EC3392D524814006E4FFFEB2
:100A4C00FDFC22FCE4CFCECDCC24E0501174FF8011
:100A5C00EDC3CC13CCCD13CDCE13CECF13CF0470AE
:070A6C00F030D5DE020BC5DE
:100A7300E9D2E7C933E833F892D5EDD2E7CD33ECC9
:070A830033FC5002B2D52242
:100A8A00EC30E7100FBF000C0EBE00080DBD0004CD
:100A9A000BEB6014A2D5EB13FCED92E7FD2274FF79
:100AAA00FCFDFEFF22E480F8A2D574FF13FC7D80D2
:030ABA00E480EFE6
:100ABD00E709F608DFFA8046E709F208DFFA803E1B
:100ACD0088828C83E709F0A3DFFA8032E309F60808
:100ADD00DFFA8078E309F208DFFA807088828C8370
:100AED00E309F0A3DFFA806489828A83E0A3F60824
:100AFD00DFFA805889828A83E0A3F208DFFA804CFE
:100B0D0080D280FA80C680D4806980F280338010D4
:100B1D0080A680EA809A80A880DA80E280CA80333D
:100B2D0089828A83ECFAE493A3C8C582C8CCC583B5
:100B3D00CCF0A3C8C582C8CCC583CCDFE9DEE78085
:100B4D000D89828A83E493A3F608DFF9ECFAA9F004
:100B5D00EDFB2289828A83ECFAE0A3C8C582C8CC5A
:100B6D00C583CCF0A3C8C582C8CCC583CCDFEADE73
:100B7D00E880DB89828A83E493A3F208DFF980CCD5
:100B8D0088F0EF60010E4E60C388F0ED2402B404CE
:100B9D000050B9F582EB2402B4040050AF23234575
:060BAD008223900B0D7382
:100BB300EF8DF0A4A8F0CF8CF0A428CE8DF0A42E56
:020BC300FE2210
:0E0BC500C3E49FFFE49EFEE49DFDE49CFC2241
:00000001FF
