:030000000208E310
:0C08E300787FE4F6D8FD75810702088BD1
:1008B500EF1F70011EC3EE64809480400BE4FDEDD4
:0808C500C3947350EB0D80F7A2
:0108CD002208
:1008CE007C007D0C120800EF1F70011EC3EE6480C9
:0508DE00948050F3229C
:10088B00D2857FE87E031208CEC285D2867FD07ECA
:10089B00071208CEC286D2877FDC7E051208CEC235
:0A08AB00877F147E001208B580D686
:10080000C2D5EC30E709B2D5E4C39DFDE49CFCEE13
:1008100030E715B2D5E4C39FFFE49EFE120836C34D
:10082000E49DFDE49CFC800312083630D507C3E448
:060830009FFFE49EFE2282
:10083600BC000BBE0029EF8DF084FFADF022E4CCA6
:10084600F875F008EF2FFFEE33FEEC33FCEE9DEC6F
:10085600984005FCEE9DFE0FD5F0E9E4CEFD22EDB5
:10086600F8F5F0EE8420D21CFEADF075F008EF2FFF
:10087600FFED33FD4007985006D5F0F222C398FDF0
:050886000FD5F0EA228D
:00000001FF
