:03000000020136C4
:0C013600787FE4F6D8FD75810902008E88
:10008E00E4F50812010E0508E508C3948040F4E477
:10009E00F5081201220508E508C3948040F4E4F542
:1000AE00087F0A7E001200E00508E508C394804030
:0100BE00F051
:0100BF00221E
:0801420001030206040C080988
:1000C000EF3395E0FE74422FF58274013EF583E430
:0200D00093FF9C
:0E00D200E58054F04FF5807F057E000200E0CF
:10010E00E4F509AF091200C00509C3E5096480943E
:03011E008840F026
:0101210022BB
:10012200750907AF091200C01509C3E50964809477
:030132008050F00A
:0101350022A7
:1000E000EF1F70011EC3EE64809480400BE4FDEDB1
:0800F000C3947350EB0D80F77F
:0100F80022E5
:1000F9007C007D0C120003EF1F70011EC3EE6480AB
:05010900948050F32278
:10000300C2D5EC30E709B2D5E4C39DFDE49CFCEE18
:1000130030E715B2D5E4C39FFFE49EFE120039C357
:10002300E49DFDE49CFC800312003930D507C3E452
:060033009FFFE49EFE2287
:10003900BC000BBE0029EF8DF084FFADF022E4CCAB
:10004900F875F008EF2FFFEE33FEEC33FCEE9DEC74
:10005900984005FCEE9DFE0FD5F0E9E4CEFD22EDBA
:10006900F8F5F0EE8420D21CFEADF075F008EF2F04
:10007900FFED33FD4007985006D5F0F222C398FDF5
:050089000FD5F0EA2292
:00000001FF
