:030000000202D425
:0C02D400787FE4F6D8FD75810B02026D06
:10026D001202FC12023D8F0B8E0A8D098C08E4FFE1
:10027D00FE7D487C43AB0BAA0AA909A8081200A36E
:0C028D00500512030280DC12030580D72C
:0602FC001202EAD2A42266
:10023D00D2A4D2A37F0A7E001202B2C2A330A4FDC3
:10024D001202E020A4FD1203081202F3AD07AC0662
:0F025D00E41201217B787A7A79AD78401200069D
:01026C00226F
:10029900EF1F70011EC3EE64809480400BE4FDEDF6
:0802A900C3947350EB0D80F7C4
:0102B100222A
:1002B2007C007D0C1201A4EF1F70011EC3EE64804E
:0502C200948050F322BE
:01030B0022CF
:0C02C700E4FF0000000000000FBF0AF67A
:0102D3002208
:03030200C2A02274
:03030500D2A02261
:0902EA00E58954F04401F5892274
:0A02E000E4F58AF58CC28DD28C2261
:03030800C28C2282
:0902F300AF8CEFFEAD8AEDFF2295
:10000300020199EC5D046005E85904700302018F55
:1000130012015A580460F6EC4860F2EC7004FDFEDD
:10002300FF22C860DB2481C85009C39860025006D0
:100033000201969850CAF582E9294B4A7005AB82B2
:1000430002018575F0007C1A7880C3EF9BEE9AED70
:1000530099400DC3EF9BFFEE9AFEED99FDE842F048
:10006300DC23ACF0D0E0FFD0E0FED0E0FDAB82209B
:10007300E7101BEB60BAEC2CFCEF33FFEE33FEED25
:1000830033FD020171E803F830E705C0F075F000B5
:10009300EF2FFFEE33FEED33FD40B830E7C280AA09
:1000A30074F8CC6480CCC86480C8F58204604FC304
:1000B300EB9FF5F0EA9E42F0E99D42F0E89C45F0A3
:1000C300603C501DE5825FFFE582D313CB5BCBF42D
:1000D3002B5582FB50280ABA002409B90020088056
:1000E3001DE5825BFBE582D313CF5FCFF4C3132FF0
:1000F3005582FF50090EBE00050DBD00010CC3EB78
:100103009FF5F0EA9E42F0E99D42F0E89C45F060DD
:0901130007CC4820E701B3EC22FF
:10011C0075F020800E75F010800575F0087D007E5E
:10012C00007F003392D530D5031201DAEC33401046
:10013C00EF33FFEE33FEED33FDEC33FCD5F0ED2267
:0E014C00E5F0247EA2D513CC92E7CDCEFF22A3
:10015A00E9D2E7C933E833F892D5EDD2E7CD33ECEB
:07016A0033FC5002B2D52264
:10017100EC30E7100FBF000C0EBE00080DBD0004EF
:100181000BEB6014A2D5EB13FCED92E7FD2274FF9B
:10019100FCFDFEFF22E480F8A2D574FF13FC7D80F4
:0301A100E480EF08
:1001A400C2D5EC30E709B2D5E4C39DFDE49CFCEE76
:1001B40030E715B2D5E4C39FFFE49EFE1201E8C305
:1001C400E49DFDE49CFC80031201E830D507C3E400
:0601D4009FFFE49EFE22E5
:0E01DA00C3E49FFFE49EFEE49DFDE49CFC2236
:1001E800BC000BBE0029EF8DF084FFADF022E4CCFB
:1001F800F875F008EF2FFFEE33FEEC33FCEE9DECC4
:10020800984005FCEE9DFE0FD5F0E9E4CEFD22ED09
:10021800F8F5F0EE8420D21CFEADF075F008EF2F53
:10022800FFED33FD4007985006D5F0F222C398FD44
:050238000FD5F0EA22E1
:00000001FF
