:03000000020435C2
:0C043500787FE4F6D8FD75811102047C8C
:10038A001205EF7D207C4E7FDC7E051204C112052A
:10039A00FC7FB87E0B12059E7D207C4E7FD67E06A2
:1003AA001204C17FD07E0712059E7D207C4E7FD02D
:1003BA007E071204C17FD07E0712059E7D207C4EE7
:1003CA007FD67E061204C17FD07E0712059E7D204D
:1003DA007C4E7FDC7E051204C17FD07E0712059E0B
:1003EA007D207C4E7FE27E041204C17FD07E0712FC
:1003FA00059E7D207C4E7FE87E031204C17FD07E5D
:10040A000712059E7D207C4E7FE27E041204C17F86
:10041A00D07E0712059E7D207C4E7FDC7E0512046D
:0B042A00C17FD07E0712059E0203A2D6
:10059E00EF1F70011EC3EE64809480400BE4FDEDEE
:0805AE00C3947350EB0D80F7BC
:0105B6002222
:1005B7007C007D0C1202EBEF1F70011EC3EE6480FE
:0505C700948050F322B6
:0505DE00030D00000008
:1005CC00C2C9C2CA8B0D8A0E890F7F2012060AD2AD
:0205DC00AF224C
:03002B00020526A5
:10052600C0E0C0F0C083C082C0D075D000C000C09B
:1005360001C002C003C004C005C006C007C2CFE5A3
:100546000F450E450D6007AA0EA90F12032FD007FF
:10055600D006D005D004D003D002D001D000D0D030
:09056600D082D083D0F0D0E03245
:10056F00AD07AC06E41202317BFA7AED796B783F76
:10057F00120126E4FBFAF9783F12003512026AEFF6
:0F058F00F4FFEEF4FEEF2401FFE43EFE02002134
:0A002100AD07AC068CCDEDF5CC2246
:0B05E300010A000208FFFF020B1413C6
:10000300E50A700DD2A7AF09AE08120021750A01E7
:0E00130022C2A7AF0CAE0B120021E4F50A22A8
:0D05EF00C2A7D2C87BFF7A0079030205CCB9
:0905FC00E4F50A120003D2CA2240
:05060500C2CAC2A722D9
:1004C1008C108D11C2CAAD07AC06E41202317BFA61
:1004D1007AED796B783F120126E4FBFAF9783F1245
:1004E100003512026AEFF4FFEEF4FEEF2401F50984
:1004F100E43EF508AC10AD11E41202317BFA7AED5D
:10050100796B783F120126E4FBFAF9783F12003546
:1005110012026AEFF4FFEEF4FEEF2401F50CE43E63
:05052100F50BD2CA2217
:04060A00EF42A822F1
:10002E000202D6E86480F8E933E83360110460F028
:10003E00ED33EC337009E8FCE9FDEAFEEBFF220438
:10004E0060DED3EB9FEA9EE99DE8C2E78CF0C2F733
:10005E0095F0400CE8CCF8E9CDF9EACEFAEBCFFBFF
:10006E001202A185D0F05804700320D5B3E80470B5
:10007E00075002B2D50202E092D5EC0460F7E4CC50
:10008E00C0E0C398F8603B94186008400DD0E0FBC8
:10009E000202B8E4FBFAC9FC8028E830E406E4C9A1
:1000AE00FBE4CAFCE830E305E4C9CACBFCE854071C
:1000BE006010F8C3E913F9EA13FAEB13FBEC13FC27
:1000CE00D8F130F52FC3E49CFCEF9BFFEE9AFEEDCA
:1000DE0099FDD0E0FBEF4E4D4C701222DB03020275
:1000EE00DDEC2CFCEF33FFEE33FEED33FDED30E7B0
:1000FE00EB0202B8EF2BFFEE3AFEED39FDD0E0FB3E
:10010E0050130BBB00030202E0ED13FDEE13FEEFE6
:08011E0013FFEC13FC0202B810
:10012600EC4D6011E8497017ED33EC3304600DE4D3
:10013600FCFFFEFD22E933E8330470F80202D61212
:1001460002A158046009E4CC248150062850090213
:1001560002E02840030202DDC0E0EB4A7044B980A9
:1001660006D0E0FB0202CCEF4E701CBD8008EBFF10
:10017600EAFEE9FD80EBE98DF0A4FEE5F002020F50
:10018600E9CDF9EAFEEBFFEF89F0A4FCE5F0CE89B4
:10019600F0A42EFFE435F0CD89F0A42DFEE435F071
:1001A6008067EF4E7005BD80D780C3EF8BF0A4AC9F
:1001B600F0EE8BF0A42CFCE435F0F8EF8AF0A42CDA
:1001C600E5F038FCE433CB8DF0A42CFCE5F03BF8ED
:1001D600EE8AF0A42CFCE5F038F8E433CF89F0A4DD
:1001E6002CFCE5F038CF3400CE89F0A42FFFE5F0E3
:1001F6003EFEE433C98DF0A42EFEE5F039CD8AF03B
:10020600A42FFFE5F03EFEE43DFD33D0E0FB5007B2
:100216000BBB000F0202E0EC2CFCEF33FFEE33FECB
:06022600ED33FD0202B8F9
:10022C0075F020800E75F010800575F0087D007E4D
:10023C00007F003392D530D503120321EC334010EC
:10024C00EF33FFEE33FEED33FDEC33FCD5F0ED2256
:0E025C00E5F0247EA2D513CC92E7CDCEFF2292
:10026A00EDD2E7CD33EC3392D524814006E4FFFE8C
:10027A00FDFC22FCE4CFCECDCC24E0501174FF80EB
:10028A00EDC3CC13CCCD13CDCE13CECF13CF047088
:07029A00F030D5DE02032164
:1002A100E9D2E7C933E833F892D5EDD2E7CD33ECA3
:0702B10033FC5002B2D5221C
:1002B800EC30E7100FBF000C0EBE00080DBD0004A7
:1002C8000BEB6014A2D5EB13FCED92E7FD2274FF53
:1002D800FCFDFEFF22E480F8A2D574FF13FC7D80AC
:0302E800E480EFC0
:1004410002038AE493A3F8E493A34003F68001F244
:1004510008DFF48029E493A3F85407240CC8C333BC
:10046100C4540F4420C8834004F456800146F6DF8B
:10047100E4800B01020408102040809005DEE47E38
:10048100019360BCA3FF543F30E509541FFEE49380
:10049100A360010ECF54C025E060A840B8E493A347
:1004A100FAE493A3F8E493A3C8C582C8CAC583CA72
:1004B100F0A3C8C582C8CAC583CADFE9DEE780BE2A
:0105EE00000C
:1002EB00C2D5EC30E709B2D5E4C39DFDE49CFCEE2E
:1002FB0030E715B2D5E4C39FFFE49EFE120335C36E
:10030B00E49DFDE49CFC800312033530D507C3E468
:06031B009FFFE49EFE229C
:0E032100C3E49FFFE49EFEE49DFDE49CFC22ED
:06032F008A838982E47359
:10033500BC000BBE0029EF8DF084FFADF022E4CCAC
:10034500F875F008EF2FFFEE33FEEC33FCEE9DEC75
:10035500984005FCEE9DFE0FD5F0E9E4CEFD22EDBB
:10036500F8F5F0EE8420D21CFEADF075F008EF2F05
:10037500FFED33FD4007985006D5F0F222C398FDF6
:050385000FD5F0EA2293
:00000001FF
