:030000000201F406
:0C01F400787FE4F6D8FD75810902000355
:10000300E4F508F5097FDC7E051201D90509E50948
:1000130070020508C39464E5086480948040E67523
:1000230008057509DCC3E50994D0E5086480948765
:100033005014AF09AE081201D974322509F509E449
:100043003508F50880DFE4F508F5097FD07E07124F
:1000530001D90509E50970020508C39464E508643C
:1000630080948040E67508077509D0D3E50994DCD0
:10007300E508648094854015AF09AE081201D97470
:10008300CE2509F50974FF3508F50880DEE4F50887
:10009300F5097FDC7E051201D90509E50970020522
:1000A30008C39464E5086480948040E67508057588
:1000B30009DCD3E50994E8E508648094834015AF2F
:1000C30009AE081201D974CE2509F50974FF350864
:1000D300F50880DEE4F508F5097FE87E031201D90F
:1000E3000509E50970020508C39464E50864809472
:1000F3008040E67508037509E8C3E50994DCE50863
:10010300648094854003020003AF09AE081201D94D
:0D01130074322509F509E43508F50880DC93
:0E01D900D2A71201C4C2A77F147E000201ABA0
:1001AB00EF1F70011EC3EE64809480400BE4FDEDE5
:0801BB00C3947350EB0D80F7B3
:0101C3002219
:1001C4007C007D0C120120EF1F70011EC3EE6480C1
:0501D400948050F322AD
:0102000022DB
:0C01E700E4FF0000000000000FBF0AF65B
:0101F30022E9
:10012000C2D5EC30E709B2D5E4C39DFDE49CFCEEFA
:1001300030E715B2D5E4C39FFFE49EFE120156C31B
:10014000E49DFDE49CFC800312015630D507C3E416
:060150009FFFE49EFE2269
:10015600BC000BBE0029EF8DF084FFADF022E4CC8D
:10016600F875F008EF2FFFEE33FEEC33FCEE9DEC56
:10017600984005FCEE9DFE0FD5F0E9E4CEFD22ED9C
:10018600F8F5F0EE8420D21CFEADF075F008EF2FE6
:10019600FFED33FD4007985006D5F0F222C398FDD7
:0501A6000FD5F0EA2274
:00000001FF
