:0300000002019169
:0C019100787FE4F6D8FD75810B02008E2B
:100142008E0A8F0B12019DAF0BAE0A12012912010A
:08015200A0AF0BAE0A02012967
:10008E001200DFEF24FE60260470F5E4F508F50992
:10009E00C3E5099403E5086480948050E37FF47E01
:1000AE00011201420509E50970E6050880E2E4F552
:1000BE0008F509C3E5099405E5086480948050C0ED
:1000CE007F2C7E011201420509E50970E6050880C4
:0100DE00E23F
:10012900EF1F70011EC3EE64809480400BE4FDED67
:08013900C3947350EB0D80F735
:01014100229B
:10015A007C007D0C120003EF1F70011EC3EE648049
:05016A00948050F32217
:10016F0020A10C7F0A7E0012012920A102D322C3F5
:01017F00225D
:1001800030A10C7F0A7E0012012930A102D322C3C4
:01019000224C
:1001070012016F501BE4F50B1201805001227F0A88
:100117007E00120129050BC3E50B648094E440E8D7
:01012700C314
:0101280022B4
:1000DF001201075020E4F50A12010750037F022294
:1000EF007F0A7E00120129050AC3E50A648094B2D3
:0700FF0040E67F01227F00B3
:0101060022D6
:03019D00C2A022DB
:0301A000D2A022C8
:10000300C2D5EC30E709B2D5E4C39DFDE49CFCEE18
:1000130030E715B2D5E4C39FFFE49EFE120039C357
:10002300E49DFDE49CFC800312003930D507C3E452
:060033009FFFE49EFE2287
:10003900BC000BBE0029EF8DF084FFADF022E4CCAB
:10004900F875F008EF2FFFEE33FEEC33FCEE9DEC74
:10005900984005FCEE9DFE0FD5F0E9E4CEFD22EDBA
:10006900F8F5F0EE8420D21CFEADF075F008EF2F04
:10007900FFED33FD4007985006D5F0F222C398FDF5
:050089000FD5F0EA2292
:00000001FF
