:03000000020D0AE4
:0C0D0A00787FE4F6D8FD75816A020D5177
:100DF10007010801090107010701080109010701AC
:100E010009010A010B0209010A010B020B010C0184
:100E11000B010A01090207020B010C010B010A0176
:100E2100090207020802040207021502080204026D
:060E310007021502150086
:0B0EDE007BFF7A0D79F1120E7080F599
:050EEF00C2C9C2CA22C5
:100EA900AD07AC068CCDEDF5CCD2CA30CFFDC2CFA3
:030EB900C2CA2288
:100ECE00EFF4FFEEF4FEEF2401FFE43EFE020EA966
:100E3700AD07AC06E4120AA37B7C7AF279307841DD
:100E47001208F8E4FBFA79407841120A01E4FBFA48
:100E5700F9783F120807120ADCEFF4FFEEF4FEEF11
:090E67002401FFE43EFE020EA985
:100D9600202A0801060126014A015D018801B801E1
:100DA600EE020B024B029302BA0310037003DC043B
:100DB60016049705260575062006E007AF202A3299
:100DC600F922F9E1FA8CFAD8FB69FBE9FC5BFC8FA6
:100DD600FCF0FD45FD6CFDB5FDF5FE2EFE47FE78EB
:0A0DE600FEA3FEB7FEDBFEFAFF16C7
:060EE900120EEFD282227E
:100EBC008E698F6AC282120EA9D282AF6AAE6902A3
:020ECC000EA96D
:100C7300E5627002C322E56164156051E56125E018
:100C83002432F8E6F56308E6F564E56125E0240817
:100C9300F8E6FC08E6FDAF627E00120C53EEC313C8
:100CA300F565EF13F566E4F567F568C3E5689566E2
:100CB300E5656480F8E5676480985049AF64AE6386
:100CC300120EBC0568E56870E2056780DE75634C4B
:100CD300756400E56275F00AA485F065F566E4F5D0
:100CE30067F568C3E5689566E5656480F8E567645C
:100CF30080985011AF64AE63120EA90568E5687061
:060D0300E2056780DED36B
:010D090022C7
:060E70008B5C8A5D895EC7
:100E7600E4F55FF5600560E560AE5F7002055F143E
:100E860025E0FFEE33FEAB5CE55E2FF9E55D3EFA4D
:100E960078617C007D007E007F02120C2D120C739F
:020EA60040D337
:010EA8002227
:10080000020B48E86480F8E933E83360110460F0D3
:10081000ED33EC337009E8FCE9FDEAFEEBFF22045E
:1008200060DED3EB9FEA9EE99DE8C2E78CF0C2F759
:1008300095F0400CE8CCF8E9CDF9EACEFAEBCFFB25
:10084000120B1385D0F05804700320D5B3E8047060
:10085000075002B2D5020B5292D5EC0460F7E4CCFB
:10086000C0E0C398F8603B94186008400DD0E0FBEE
:10087000020B2AE4FBFAC9FC8028E830E406E4C94C
:10088000FBE4CAFCE830E305E4C9CACBFCE8540742
:100890006010F8C3E913F9EA13FAEB13FBEC13FC4D
:1008A000D8F130F52FC3E49CFCEF9BFFEE9AFEEDF0
:1008B00099FDD0E0FBEF4E4D4C701222DB03020B92
:1008C0004FEC2CFCEF33FFEE33FEED33FDED30E764
:1008D000EB020B2AEF2BFFEE3AFEED39FDD0E0FBE9
:1008E00050130BBB0003020B52ED13FDEE13FEEF92
:0808F00013FFEC13FC020B2ABC
:1008F800EC4D6011E8497017ED33EC3304600DE4FA
:10090800FCFFFEFD22E933E8330470F8020B4812BD
:100918000B1358046009E4CC2481500628500902BE
:100928000B52284003020B4FC0E0EB4A7044B980D9
:1009380006D0E0FB020B3EEF4E701CBD8008EBFFBB
:10094800EAFEE9FD80EBE98DF0A4FEE5F00209E19D
:10095800E9CDF9EAFEEBFFEF89F0A4FCE5F0CE89DA
:10096800F0A42EFFE435F0CD89F0A42DFEE435F097
:100978008067EF4E7005BD80D780C3EF8BF0A4ACC5
:10098800F0EE8BF0A42CFCE435F0F8EF8AF0A42C00
:10099800E5F038FCE433CB8DF0A42CFCE5F03BF813
:1009A800EE8AF0A42CFCE5F038F8E433CF89F0A403
:1009B8002CFCE5F038CF3400CE89F0A42FFFE5F009
:1009C8003EFEE433C98DF0A42EFEE5F039CD8AF061
:1009D800A42FFFE5F03EFEE43DFD33D0E0FB5007D9
:1009E8000BBB000F020B52EC2CFCEF33FFEE33FE77
:0609F800ED33FD020B2AA5
:1009FE00020B52EC5D046005E859047003020B48CB
:100A0E00120B13580460F6EC4860F2EC7004FDFE15
:100A1E00FF22C860DB2481C85009C39860025006CB
:100A2E00020B4F9850CAF582E9294B4A7005AB82EA
:100A3E00020B3E75F0007C1A7880C3EF9BEE9AEDA8
:100A4E0099400DC3EF9BFFEE9AFEED99FDE842F043
:100A5E00DC23ACF0D0E0FFD0E0FED0E0FDAB822096
:100A6E00E7101BEB60BAEC2CFCEF33FFEE33FEED20
:100A7E0033FD020B2AE803F830E705C0F075F000ED
:100A8E00EF2FFFEE33FEED33FD40B830E7C280AA04
:100A9E0075F020800E75F010800575F0087D007ED3
:100AAE00007F003392D530D503120C65EC33401025
:100ABE00EF33FFEE33FEED33FDEC33FCD5F0ED22DC
:0E0ACE00E5F0247EA2D513CC92E7CDCEFF2218
:100ADC00EDD2E7CD33EC3392D524814006E4FFFE12
:100AEC00FDFC22FCE4CFCECDCC24E0501174FF8071
:100AFC00EDC3CC13CCCD13CDCE13CECF13CF04700E
:070B0C00F030D5DE020C659C
:100B1300E9D2E7C933E833F892D5EDD2E7CD33EC28
:070B230033FC5002B2D522A1
:100B2A00EC30E7100FBF000C0EBE00080DBD00042C
:100B3A000BEB6014A2D5EB13FCED92E7FD2274FFD8
:100B4A00FCFDFEFF22E480F8A2D574FF13FC7D8031
:030B5A00E480EF45
:100D1600020EDEE493A3F8E493A34003F68001F207
:100D260008DFF48029E493A3F85407240CC8C333DE
:100D3600C4540F4420C8834004F456800146F6DFAD
:100D4600E4800B0102040810204080900D96E47E9A
:100D5600019360BCA3FF543F30E509541FFEE493A2
:100D6600A360010ECF54C025E060A840B8E493A369
:100D7600FAE493A3F8E493A3C8C582C8CAC583CA94
:100D8600F0A3C8C582C8CAC583CADFE9DEE780BE4C
:010DF0000002
:100B5D00E709F608DFFA8046E709F208DFFA803E7A
:100B6D0088828C83E709F0A3DFFA8032E309F60867
:100B7D00DFFA8078E309F208DFFA807088828C83CF
:100B8D00E309F0A3DFFA806489828A83E0A3F60883
:100B9D00DFFA805889828A83E0A3F208DFFA804C5D
:100BAD0080D280FA80C680D4806980F28033801034
:100BBD0080A680EA809A80A880DA80E280CA80339D
:100BCD0089828A83ECFAE493A3C8C582C8CCC58315
:100BDD00CCF0A3C8C582C8CCC583CCDFE9DEE780E5
:100BED000D89828A83E493A3F608DFF9ECFAA9F064
:100BFD00EDFB2289828A83ECFAE0A3C8C582C8CCBA
:100C0D00C583CCF0A3C8C582C8CCC583CCDFEADED2
:100C1D00E880DB89828A83E493A3F208DFF980CC34
:100C2D0088F0EF60010E4E60C388F0ED2402B4042D
:100C3D000050B9F582EB2402B4040050AF232345D4
:060C4D008223900BAD7341
:100C5300EF8DF0A4A8F0CF8CF0A428CE8DF0A42EB5
:020C6300FE226F
:0E0C6500C3E49FFFE49EFEE49DFDE49CFC22A0
:00000001FF
