:0300000002065E97
:0C065E00787FE4F6D8FD75811602066A6C
:100571000701080109010701070108010901070134
:1005810009010A010B0209010A010B020B010C010D
:100591000B010A01090207020B010C010B010A01FF
:1005A10009020702080204020702150208020402F6
:0605B1000702150215000F
:0B066A007BFF7A0579711205F080F526
:05067B00C2C9C2CA2241
:10062900AD07AC068CCDEDF5CCD2CA30CFFDC2CF2B
:03063900C2CA2210
:10064E00EFF4FFEEF4FEEF2401FFE43EFE02062976
:1005B700AD07AC06E41202A67B7C7AF2793078416B
:1005C7001200FBE4FBFA79407841120204E4FBFADB
:1005D700F9783F12000A1202DFEFF4FFEEF4FEEFA4
:0905E7002401FFE43EFE02062996
:10051D0001060126014A015D018801B801EE020BB9
:10052D00024B029302BA0310037003DC0416049706
:10053D0005260575062006E007AFF922F9E1FA8CCC
:10054D00FAD8FB69FBE9FC5BFC8FFCF0FD45FD6C0B
:10055D00FDB5FDF5FE2EFE47FE78FEA3FEB7FEDBD4
:04056D00FEFAFF167D
:0606750012067BD2822276
:10063C008E158F16C282120629D282AF16AE150203
:02064C0006297D
:10047600E50E7002C322E50D64156061E50D25E009
:100486002447F582E43405F583E493F50F7401936C
:10049600F510E50D25E0241DF582E43405F583E429
:1004A60093FC740193FDAF0E7E00120456EEC31347
:1004B600F511EF13F512E4F513F514C3E5149512CF
:1004C600E5116480F8E5136480985049AF10AE0FCB
:1004D60012063C0514E51470E2051380DE750F4C18
:1004E600751000E50E75F00AA485F011F512E4F515
:1004F60013F514C3E5149512E5116480F8E5136449
:1005060080985011AF10AE0F1206290514E514702D
:06051600E2051380DED3B4
:01051C0022BC
:0605F0008B088A09890A4C
:1005F600E4F50BF50C050CE50CAE0B7002050B14BF
:1006060025E0FFEE33FEAB08E50A2FF9E5093EFAD1
:10061600780D7C007D007E007F0212043012047685
:0206260040D3BF
:0106280022AF
:1000030002034BE86480F8E933E83360110460F0DD
:10001300ED33EC337009E8FCE9FDEAFEEBFF220463
:1000230060DED3EB9FEA9EE99DE8C2E78CF0C2F75E
:1000330095F0400CE8CCF8E9CDF9EACEFAEBCFFB2A
:1000430012031685D0F05804700320D5B3E804706A
:10005300075002B2D502035592D5EC0460F7E4CC05
:10006300C0E0C398F8603B94186008400DD0E0FBF3
:1000730002032DE4FBFAC9FC8028E830E406E4C956
:10008300FBE4CAFCE830E305E4C9CACBFCE8540747
:100093006010F8C3E913F9EA13FAEB13FBEC13FC52
:1000A300D8F130F52FC3E49CFCEF9BFFEE9AFEEDF5
:1000B30099FDD0E0FBEF4E4D4C701222DB0302039F
:1000C30052EC2CFCEF33FFEE33FEED33FDED30E766
:1000D300EB02032DEF2BFFEE3AFEED39FDD0E0FBF3
:1000E30050130BBB0003020355ED13FDEE13FEEF9C
:0800F30013FFEC13FC02032DC6
:1000FB00EC4D6011E8497017ED33EC3304600DE4FF
:10010B00FCFFFEFD22E933E8330470F802034B12C7
:10011B00031658046009E4CC2481500628500902C8
:10012B000355284003020352C0E0EB4A7044B980E8
:10013B0006D0E0FB020341EF4E701CBD8008EBFFC5
:10014B00EAFEE9FD80EBE98DF0A4FEE5F00201E4A7
:10015B00E9CDF9EAFEEBFFEF89F0A4FCE5F0CE89DF
:10016B00F0A42EFFE435F0CD89F0A42DFEE435F09C
:10017B008067EF4E7005BD80D780C3EF8BF0A4ACCA
:10018B00F0EE8BF0A42CFCE435F0F8EF8AF0A42C05
:10019B00E5F038FCE433CB8DF0A42CFCE5F03BF818
:1001AB00EE8AF0A42CFCE5F038F8E433CF89F0A408
:1001BB002CFCE5F038CF3400CE89F0A42FFFE5F00E
:1001CB003EFEE433C98DF0A42EFEE5F039CD8AF066
:1001DB00A42FFFE5F03EFEE43DFD33D0E0FB5007DE
:1001EB000BBB000F020355EC2CFCEF33FFEE33FE81
:0601FB00ED33FD02032DAF
:10020100020355EC5D046005E85904700302034BD9
:10021100120316580460F6EC4860F2EC7004FDFE1F
:10022100FF22C860DB2481C85009C39860025006D0
:100231000203529850CAF582E9294B4A7005AB82F4
:1002410002034175F0007C1A7880C3EF9BEE9AEDB2
:1002510099400DC3EF9BFFEE9AFEED99FDE842F048
:10026100DC23ACF0D0E0FFD0E0FED0E0FDAB82209B
:10027100E7101BEB60BAEC2CFCEF33FFEE33FEED25
:1002810033FD02032DE803F830E705C0F075F000F7
:10029100EF2FFFEE33FEED33FD40B830E7C280AA09
:1002A10075F020800E75F010800575F0087D007ED8
:1002B100007F003392D530D503120468EC3340102F
:1002C100EF33FFEE33FEED33FDEC33FCD5F0ED22E1
:0E02D100E5F0247EA2D513CC92E7CDCEFF221D
:1002DF00EDD2E7CD33EC3392D524814006E4FFFE17
:1002EF00FDFC22FCE4CFCECDCC24E0501174FF8076
:1002FF00EDC3CC13CCCD13CDCE13CECF13CF047013
:07030F00F030D5DE020468A6
:10031600E9D2E7C933E833F892D5EDD2E7CD33EC2D
:0703260033FC5002B2D522A6
:10032D00EC30E7100FBF000C0EBE00080DBD000431
:10033D000BEB6014A2D5EB13FCED92E7FD2274FFDD
:10034D00FCFDFEFF22E480F8A2D574FF13FC7D8036
:03035D00E480EF4A
:10036000E709F608DFFA8046E709F208DFFA803E7F
:1003700088828C83E709F0A3DFFA8032E309F6086C
:10038000DFFA8078E309F208DFFA807088828C83D4
:10039000E309F0A3DFFA806489828A83E0A3F60888
:1003A000DFFA805889828A83E0A3F208DFFA804C62
:1003B00080D280FA80C680D4806980F28033801039
:1003C00080A680EA809A80A880DA80E280CA8033A2
:1003D00089828A83ECFAE493A3C8C582C8CCC5831A
:1003E000CCF0A3C8C582C8CCC583CCDFE9DEE780EA
:1003F0000D89828A83E493A3F608DFF9ECFAA9F069
:10040000EDFB2289828A83ECFAE0A3C8C582C8CCBE
:10041000C583CCF0A3C8C582C8CCC583CCDFEADED7
:10042000E880DB89828A83E493A3F208DFF980CC39
:1004300088F0EF60010E4E60C388F0ED2402B40432
:100440000050B9F582EB2402B4040050AF232345D9
:0604500082239003B0734B
:10045600EF8DF0A4A8F0CF8CF0A428CE8DF0A42EBA
:02046600FE2274
:0E046800C3E49FFFE49EFEE49DFDE49CFC22A5
:00000001FF
