:030000000206975E
:0C069700787FE4F6D8FD75813C02047801
:10063A00EF1F70011EC3EE64809480400BE4FDED51
:08064A00C3947350EB0D80F71F
:010652002285
:100653007C007D0C12038CEF1F70011EC3EE6480BF
:05066300948050F32219
:0106B2002225
:0C068A00E4FF0000000000000FBF0AF6B3
:010696002241
:1005C30075A0FFC287D286C2851206B2D2851206F3
:1005D300B2E5A05480C4131313540124FF9200C244
:0305E30085A200EE
:0105E60022F2
:10062000E4F52E12068A1205C34002D322AF2E052E
:090630002EC3EF648094E440EA5B
:01063900229E
:1005E7008F2D1206205016C287C286C2851206B208
:0E05F700852DA01206B2D2851206B2C2852250
:100605008F2D1206205013D287C286C285852DA054
:0B0615001206B2D2851206B2C2852286
:0706A300EF4480FF0205E7B0
:060503008B298A2A892BD6
:10050900EF540733333354F84440FF1205E7E4F559
:100519002CAB29AA2AA92BAF2CEF3395E08F82F5B2
:100529008312035F541FFF120605052CC3E52C64D3
:0505390080948840DC05
:01053E00229A
:100668007F381205E77F0C1205E77F061205E77F42
:04067800010205E78F
:0506AA007F010205E7DD
:0E067C00EF7003FF80027F40EF4DFF0206A3E8
:0306AF000206053B
:06053F008B298A2A892B9A
:10054500E4F52CAB29AA2AA92BAF2CEF3395E08F24
:1005550082F58312035F6013052CEF3395E08F82DC
:0B056500F58312035FFF12060580D82B
:010570002268
:10057100584155542D4743584C5A58203136303242
:1005810000546578743A0025336400000008041EA5
:0B059100040800000002040F04020038
:100478001206687BFF7A05798CE4FF1205037BFF7F
:100488007A0579947F01120503E4FDFF12067C7B4F
:10049800FF7A05797112053FE4FD7F0112067CE4BD
:1004A800FF1206AF7F011206AF7BFF7A0579821231
:1004B800053FE4F527F5287D077F0112067C752C9A
:1004C800FF752D05752E8885272F8528307B007AA6
:1004D80000792212005F7B007A00792212053F7FA3
:1004E8002C7E0112063A0528E52870020527C394D8
:0B04F800C8E5276480948040BE80B7F8
:10035F00BB010CE58229F582E5833AF583E0225053
:10036F0006E92582F8E622BBFE06E92582F8E2229D
:0D037F00E58229F582E5833AF583E49322B7
:10038C00C2D5EC30E709B2D5E4C39DFDE49CFCEE8C
:10039C0030E715B2D5E4C39FFFE49EFE1203EDC314
:1003AC00E49DFDE49CFC80031203ED30D507C3E40F
:0603BC009FFFE49EFE22FB
:10000300E538242CF8E60538227829300702782CC5
:10001300E475F0011204420203C22000EB7F2ED2EA
:10002300008018EF540F2490D43440D4FF30040BD5
:10003300EF24BFB41A0050032461FFE539600215B1
:1000430039053CE53C7002053B30070D7829E47522
:10005300F001120442EF0203DB02059C7403D20792
:100063008003E4C207F5388B298A2A892BE4F53902
:10007300F53BF53CE53960077F2012003E80F575BE
:100083003AFFC201C200C202C203C205C206C208CD
:1000930012000CFF700D3007057F0012004FAF3CBC
:1000A300AE3B22B4255FC2D5C20412000CFF24D09C
:1000B300B40A00501A75F00A783930D50508B6FF2E
:1000C3000106C6A426F620D5047002D20380D924E3
:1000D300CFB41A00EF5004C2E5D20402024FD2019A
:1000E30080C6D20080C0D20280BCD2D580BAD205ED
:1000F30080B47F2012003E2002077401B53900400E
:10010300F1120003FF12003E020077D208D20680EC
:1001130095120003FB120003FA120003F94A4B7015
:100123000679207A037BFF20022EE539602A7E00C0
:100133008E8275830012035F60060EEE653A70F0DF
:10014300C2D5EBC0E0EAC0E0E9C0E0EE120296D00F
:10015300E0F9D0E0FAD0E0FB1203C2FF60AAEBC0E3
:10016300E0EAC0E0E9C0E012003ED0E02401F9D0AB
:10017300E03400FAD0E0FBE53A0460DCD53AD980FC
:10018300877BFF7A027992D202809C791080027970
:1001930008C206C2088008D2D5790A8004790AC247
:1001A300D5E53A047002F53AE4FAFDFEFF120003C6
:1001B300FC7B08200113120003FD7B1030000A12A0
:1001C3000003FE120003FF7B20EC3382D592D5504F
:1001D30013C3E43000069FFFE49EFEE42001039D69
:1001E300FDE49CFCE4CBF8C201EC700CCFCECDCC8B
:1001F300E824F8F870F38017C3EF33FFEE33FEED16
:1002030033FDEC33FCEB33FB994002FB0FD8E9EBF6
:10021300300105F8D0E0C448B201C0E00AEC4D4E0D
:100223004F78207B0070C2EAB53A0040BCC0E012B0
:100233000298D0F0D0E0200104C4C0E0C4B201C0F1
:10024300F0120027D0F0D5F0EB0200771204520130
:100253001453018E5800E54C00E14201924F019A7C
:0F02630044019A4900FA4301A0550184460184E1
:100272004501844703405000E92D00ED2E01102B6B
:1002820000F123010E2003292A00A94800000108D9
:100292003F3F3F00790AA2D5200314300509B91067
:1002A200020404B9080104A2D52006025001042068
:1002B20002689202B539005034C0E07F2030031941
:1002C2007F30A20272067205500F1202EFC202C202
:1002D20006C205C2087F30800F300503E9C0E01274
:1002E200003E300503D0E0F9D0E0B539CC30051737
:1002F2007F30B9100C12003E7F583004077F78809F
:1003020003B9080312003E3002057F2D02003E7F32
:10031200202008F87F2B2006F322920280CF286E3D
:10032200756C6C2900D2011200033001F8C2017809
:100332003930D50108F60200A92D50434958120060
:10034200032403B405004001E490033B9312002F01
:0D035200743A12002FD20375390402018E97
:1003C200BB010689828A83E0225002E722BBFE0239
:0903D200E32289828A83E493226C
:1003DB00BB010689828A83F0225002F722BBFE0101
:0203EB00F322FB
:1003ED00BC000BBE0029EF8DF084FFADF022E4CCF4
:1003FD00F875F008EF2FFFEE33FEEC33FCEE9DECBD
:10040D00984005FCEE9DFE0FD5F0E9E4CEFD22ED02
:10041D00F8F5F0EE8420D21CFEADF075F008EF2F4C
:10042D00FFED33FD4007985006D5F0F222C398FD3D
:05043D000FD5F0EA22DA
:10044200FAE6FB0808E6F925F0F618E6CA3AF622BB
:10045200D083D082F8E4937012740193700DA3A339
:1004620093F8740193F5828883E47374029368604D
:06047200EFA3A3A380DF4D
:10059C00EFB40A07740D1205A7740A309811A899C4
:1005AC00B8130CC2983098FDA899C298B811F630BF
:0705BC0099FDC299F5992297
:00000001FF
