:030000000204C334
:0C04C300787FE4F6D8FD75813D02050A43
:10064900256264202A20256264203D20252D3262FE
:1006590064207C20000D0A00256264202A2025627E
:0C06690064203D20252D3262640D0A0043
:1005CF00750801750901D3E5086480F8E5096480B1
:1005DF0098501B7BFF7A06794985090D85080EE532
:1005EF00098508F0A4F50F120088050980D87BFF54
:1005FF007A06795E1200880508D3E508648094892D
:02060F0040C1E8
:0106110022C6
:10054F00C3ED648094864077120382643E706D9091
:10055F00000112039B643F706390000512039B64BC
:10056F003B705990000312039B642A704F90000256
:10057F0012039BFFC3648094B04041D3EF64809417
:10058F00B9503990000412039BFFC3648094B040AC
:10059F002BD3EF648094B9502390000412039B2453
:1005AF00D0FF90000212039B24D07BFF7A06796163
:0F05BF00F50D8F0E8FF0A4F50F0200881205CFF7
:0105CE00220A
:100777001207951205CF7BFF7A05794F1206E7809E
:01078700F57C
:10072A00E587543F4480F587C29FD29EE589540FDE
:0F073A004420F589758BFA758DFAD28ED29C22E8
:0707A0003098FDAF99C298EB
:0107A700222F
:0807A8008F993099FDC29922DE
:06069D008B328A33893420
:1006A300E4FEEE6D60161207A0AB32AA33A9348EB6
:0E06B30082758300EF1203C80EBF0AE6AF0681
:0106C1002216
:100612008B358A368937E94A4B602BAB35AA36A926
:1006220037120382FF1207A8AB35AA36A937120385
:1006320082FF640A6010EF600D74012537F537E41C
:070642003536F53680D522A4
:0606C2008B388A39893AE9
:1006C800E4FEEE6D60161207A0AB38AA39A93A8E7F
:0E06D80082758300EF1203C80EEF70E6AF06C6
:0106E60022F1
:100675008B3B8A3C893DE94A4B601CAB3BAA3CA9B4
:100685003D120382FF60101207A87401253DF53D58
:08069500E4353CF53C80E42251
:0607B000AE071207A822AB
:0407BC001207A0225E
:10074900EF1F70011EC3EE64809480400BE4FDED41
:08075900C3947050EB0D80F712
:010761002275
:100762007C007D101203EAEF1F70011EC3EE64804D
:05077200948050F32209
:0107C4002212
:0C078800E4FF0000000000000FBF0AF6B4
:010794002242
:0407C000EF42A8223A
:0507B600C10901220051
:0B07950012072A7F101207C0D2AF220B
:1007090020091DAF99AE22052274232EF8EFF66455
:100719003B6005E522B40F082009FDD209E4F52262
:0107290022AD
:1006E7008B088A09890A300918E94A4B60117B008F
:1006F7007A007923850A828509837D0F120424C233
:020707000922C5
:03002300020003D5
:10000300C0E0C0D075D000C000C006C0073098055E
:10001300120709C298D007D006D000D0D0D0E03262
:1004CF00020777E493A3F8E493A34003F68001F2C5
:1004DF0008DFF48029E493A3F85407240CC8C3332E
:1004EF00C4540F4420C8834004F456800146F6DFFD
:1004FF00E4800B01020408102040809007B6E47ED0
:10050F00019360BCA3FF543F30E509541FFEE493F1
:10051F00A360010ECF54C025E060A840B8E493A3B8
:10052F00FAE493A3F8E493A3C8C582C8CAC583CAE3
:10053F00F0A3C8C582C8CAC583CADFE9DEE780BE9B
:0107BB00003D
:10038200BB010689828A83E0225002E722BBFE0279
:09039200E32289828A83E49322AC
:10039B00BB010CE58229F582E5833AF583E0225017
:1003AB0006E92582F8E622BBFE06E92582F8E22261
:0D03BB00E58229F582E5833AF583E493227B
:1003C800F8BB010DE58229F582E5833AF583E8F06B
:1003D800225006E92582C8F622BBFE05E92582C817
:0203E800F222FF
:1003EA00C2D5EC30E709B2D5E4C39DFDE49CFCEE2E
:1003FA0030E715B2D5E4C39FFFE49EFE120438C36A
:10040A00E49DFDE49CFC800312043830D507C3E464
:06041A009FFFE49EFE229C
:060420008A838982E47367
:10002600E519240DF8E6051922780A300702780D3D
:10003600E475F00112048D0203822000EB7F2ED2BC
:10004600008018EF540F2490D43440D4FF30040BB2
:10005600EF24BFB41A0050032461FFE51A600215AD
:100066001A051DE51D7002051C30070D780AE4759A
:10007600F00112048DEF0204260207B07403D207C2
:100086008003E4C207F5198B0A8A0B890CE4F51A7A
:10009600F51CF51DE51A60077F2012006180F575D5
:1000A6001BFFC201C200C202C203C205C206C208C9
:1000B60012002FFF700D3007057F00120072AF1D72
:1000C600AE1C22B4255FC2D5C20412002FFF24D075
:1000D600B40A00501A75F00A781A30D50508B6FF2A
:1000E6000106C6A426F620D5047002D20380D924C0
:1000F600CFB41A00EF5004C2E5D204020272D20154
:1001060080C6D20080C0D20280BCD2D580BAD205C9
:1001160080B47F201200612002077401B51A0040E6
:10012600F1120026FF12006102009AD208D2068060
:1001360095120026FB120026FA120026F94A4B7089
:100146000679437A037BFF20022EE51A602A7E0099
:100156008E8275830012039B60060EEE651B70F09F
:10016600C2D5EBC0E0EAC0E0E9C0E0EE1202B9D0C9
:10017600E0F9D0E0FAD0E0FB120382FF60AAEBC000
:10018600E0EAC0E0E9C0E0120061D0E02401F9D065
:10019600E03400FAD0E0FBE51B0460DCD51BD98017
:1001A600877BFF7A0279B5D202809C79108002792A
:1001B60008C206C2088008D2D5790A8004790AC224
:1001C600D5E51B047002F51BE4FAFDFEFF120026BE
:1001D600FC7B08200113120026FD7B1030000A125A
:1001E6000026FE120026FF7B20EC3382D592D550E6
:1001F60013C3E43000069FFFE49EFEE42001039D46
:10020600FDE49CFCE4CBF8C201EC700CCFCECDCC67
:10021600E824F8F870F38017C3EF33FFEE33FEEDF2
:1002260033FDEC33FCEB33FB994002FB0FD8E9EBD3
:10023600300105F8D0E0C448B201C0E00AEC4D4EEA
:100246004F78207B0070C2EAB51B0040BCC0E012AC
:1002560002BBD0F0D0E0200104C4C0E0C4B201C0AB
:10026600F012004AD0F0D5F0EB02009A12049D017C
:10027600375301B15801084C01044201B54F01BD85
:0F0286004401BD49011D4301C35501A74601A70E
:100295004501A747036350010C2D01102E01332B97
:1002A500011423013120034C2A00CC480000012B06
:1002B5003F3F3F00790AA2D5200314300509B91044
:1002C500020404B9080104A2D52006025001042045
:1002D50002689202B51A005034C0E07F203003193D
:1002E5007F30A20272067205500F120312C202C2BB
:1002F50006C205C2087F30800F300503E9C0E01251
:100305000061300503D0E0F9D0E0B51ACC3005170F
:100315007F30B9100C1200617F583004077F788058
:1003250003B908031200613002057F2D0200617FC9
:10033500202008F87F2B2006F322920280CF286E1A
:10034500756C6C2900D2011200263001F8C20178C3
:100355001A30D50108F60200CC2D50434958120039
:10036500262403B405004001E490035E9312005275
:0D037500743A120052D203751A040201B14D
:10042600BB010689828A83F0225002F722BBFE01B5
:02043600F322AF
:10043800BC000BBE0029EF8DF084FFADF022E4CCA8
:10044800F875F008EF2FFFEE33FEEC33FCEE9DEC71
:10045800984005FCEE9DFE0FD5F0E9E4CEFD22EDB7
:10046800F8F5F0EE8420D21CFEADF075F008EF2F01
:10047800FFED33FD4007985006D5F0F222C398FDF2
:050488000FD5F0EA228F
:10048D00FAE6FB0808E6F925F0F618E6CA3AF62270
:10049D00D083D082F8E4937012740193700DA3A3EE
:1004AD0093F8740193F5828883E473740293686002
:0604BD00EFA3A3A380DF02
:00000001FF
