:03000000020AC22F
:0C0AC200787FE4F6D8FD75810B020A6A0B
:100A6A00120AEA120A3A8F0B8E0A8D098C08E4FFE1
:100A7A00FE7D487C43AB0BAA0AA909A8081208A064
:0A0A8A005004C28080DDD28080D9C4
:060AEA00120AD8D284229A
:100A3A00D284D2837F0A7E00120AADC2833084FD3B
:100A4A00120ACE2084FD120AF0120AE1AD07AC06A2
:0F0A5A00E412091E7B787A7A79AD78401208038E
:010A6900226A
:090AD800E58954F04401F589227E
:0A0ACE00E4F58AF58CC28DD28C226B
:030AF000C28C2293
:090AE100AF8CEFFEAD8AEDFF229F
:100A9400EF1F70011EC3EE64809480400BE4FDEDF3
:080AA400C3947350EB0D80F7C1
:010AAC002227
:100AAD007C007D0C1209A1EF1F70011EC3EE648046
:050ABD00948050F322BB
:10080000020996EC5D046005E85904700302098C46
:10081000120957580460F6EC4860F2EC7004FDFED3
:10082000FF22C860DB2481C85009C39860025006CB
:100830000209939850CAF582E9294B4A7005AB82A8
:1008400002098275F0007C1A7880C3EF9BEE9AED66
:1008500099400DC3EF9BFFEE9AFEED99FDE842F043
:10086000DC23ACF0D0E0FFD0E0FED0E0FDAB822096
:10087000E7101BEB60BAEC2CFCEF33FFEE33FEED20
:1008800033FD02096EE803F830E705C0F075F000AB
:10089000EF2FFFEE33FEED33FD40B830E7C280AA04
:1008A00074F8CC6480CCC86480C8F58204604FC3FF
:1008B000EB9FF5F0EA9E42F0E99D42F0E89C45F09E
:1008C000603C501DE5825FFFE582D313CB5BCBF428
:1008D0002B5582FB50280ABA002409B90020088051
:1008E0001DE5825BFBE582D313CF5FCFF4C3132FEB
:1008F0005582FF50090EBE00050DBD00010CC3EB73
:100900009FF5F0EA9E42F0E99D42F0E89C45F060D8
:0909100007CC4820E701B3EC22FA
:1009190075F020800E75F010800575F0087D007E59
:10092900007F003392D530D5031209D7EC3340103C
:10093900EF33FFEE33FEED33FDEC33FCD5F0ED2262
:0E094900E5F0247EA2D513CC92E7CDCEFF229E
:10095700E9D2E7C933E833F892D5EDD2E7CD33ECE6
:0709670033FC5002B2D5225F
:10096E00EC30E7100FBF000C0EBE00080DBD0004EA
:10097E000BEB6014A2D5EB13FCED92E7FD2274FF96
:10098E00FCFDFEFF22E480F8A2D574FF13FC7D80EF
:03099E00E480EF03
:1009A100C2D5EC30E709B2D5E4C39DFDE49CFCEE71
:1009B10030E715B2D5E4C39FFFE49EFE1209E5C3FB
:1009C100E49DFDE49CFC80031209E530D507C3E4F6
:0609D1009FFFE49EFE22E0
:0E09D700C3E49FFFE49EFEE49DFDE49CFC2231
:1009E500BC000BBE0029EF8DF084FFADF022E4CCF6
:1009F500F875F008EF2FFFEE33FEEC33FCEE9DECBF
:100A0500984005FCEE9DFE0FD5F0E9E4CEFD22ED04
:100A1500F8F5F0EE8420D21CFEADF075F008EF2F4E
:100A2500FFED33FD4007985006D5F0F222C398FD3F
:050A35000FD5F0EA22DC
:00000001FF
