:03000000020A8C65
:0C0A8C00787FE4F6D8FD75814D020AD396
:0D0CE1006469733A252E33666D6D0D0A00AF
:100B9600120C62120CD2120D048F258E248D238C1A
:100BA600227529FF752A0C752BE18F2F8E2E8D2D20
:100BB6008C2C7B007A0079081206797B007A007902
:060BC60008120BCC80D0E8
:060CEE00041C00000000E0
:100C3E00120D41120D16AD07AC06E41200AB7B7817
:100C4E007A7A79AD78401200098F1F8E1E8D1D8C19
:040C5E001C020CC1A7
:0F0CD200120D0D7BFF7A0C793E120CAF020CC194
:100CC100D2A37F0A7E00120C9AC2A3120D39020C24
:010CD100FA28
:090D0400AF1FAE1EAD1DAC1C2298
:100C6200E587543F4480F587C29FD29EE589540FA1
:0F0C72004420F589758BFA758DFAD28ED29C22AB
:070D1F003098FDAF99C29866
:010D260022AA
:080D27008F993099FDC2992259
:060BF4008B428A43894494
:100BFA00E4FEEE6D6016120D1FAB42AA43A9448EA5
:0E0C0A0082758300EF1205260EBF0AE6AF06C4
:010C180022B9
:100B5F008B458A468947E94A4B602BAB45AA46A984
:100B6F00471204CEFF120D27AB45AA46A947120420
:100B7F00CEFF640A6010EF600D74012547F547E45E
:070B8F003546F54680D52232
:060C19008B488A49894A5C
:100C1F00E4FEEE6D6016120D1FAB48AA49A94A8E6D
:0E0C2F0082758300EF1205260EEF70E6AF0609
:010C3D002294
:100BCC008B268A278928E94A4B601CAB26AA27A9C1
:100BDC00281204CEFF6010120D2774012528F52869
:080BEC00E43527F52780E4221F
:060D2F00AE07120D2722A1
:040D3500120D1F225A
:090D0D00E58954F04401F5892246
:0A0CFA00E4F58AF58CC28DD28C223D
:030D4100C28C223F
:090D1600AF8CEFFEAD8AEDFF2267
:100C8100EF1F70011EC3EE64809480400BE4FDED04
:080C9100C3947350EB0D80F7D2
:010C99002238
:100C9A007C007D0C120548EF1F70011EC3EE6480B4
:050CAA00948050F322CC
:050CF400034B000000AD
:100CAF008B4B8A4C894DD288D2B27F01120D3DD227
:020CBF00AF2262
:040D390030B2FD22B5
:03000300020B18D5
:100B1800C0E0C0F0C083C082C0D075D000C000C0A3
:100B280001C002C003C004C005C006C007E54D45AA
:100B38004C454B6007AA4CA94D1205C2D007D006F8
:100B4800D005D004D003D002D001D000D0D0D082BC
:070B5800D083D0F0D0E032A1
:040D3D00EF42A822B7
:10000600020123EC5D046005E8590470030201193E
:100016001200E4580460F6EC4860F2EC7004FDFE51
:10002600FF22C860DB2481C85009C39860025006CD
:100036000201209850CAF582E9294B4A7005AB8225
:1000460002010F75F0007C1A7880C3EF9BEE9AEDE3
:1000560099400DC3EF9BFFEE9AFEED99FDE842F045
:10006600DC23ACF0D0E0FFD0E0FED0E0FDAB822098
:10007600E7101BEB60BAEC2CFCEF33FFEE33FEED22
:1000860033FD0200FBE803F830E705C0F075F00029
:10009600EF2FFFEE33FEED33FD40B830E7C280AA06
:1000A60075F020800E75F010800575F0087D007ED5
:1000B600007F003392D530D50312057EEC33401015
:1000C600EF33FFEE33FEED33FDEC33FCD5F0ED22DE
:0E00D600E5F0247EA2D513CC92E7CDCEFF221A
:10061D00E53D2429F8E6053D2278263007027829A4
:10062D00E475F00112058C0204CE2000EB7F2ED272
:10063D00008018EF540F2490D43440D4FF30040BB5
:10064D00EF24BFB41A0050032461FFE53E6002158C
:10065D003E0541E5417002054030070D7826E475F1
:10066D00F00112058CEF020514020D2F7403D20751
:10067D008003E4C207F53D8B268A278928E4F53EE1
:10068D00F540F541E53E60077F2012065880F5756F
:10069D003FFFC201C200C202C203C205C206C208A8
:1006AD00120626FF700D3007057F00120669AF4157
:1006BD00AE4022B4255FC2D5C204120626FF24D057
:1006CD00B40A00501A75F00A783E30D50508B6FF09
:1006DD000106C6A426F620D5047002D20380D924C3
:1006ED00CFB41A00EF5004C2E5D204020956D2016C
:1006FD0080C6D20080C0D20280BCD2D580BAD205CD
:10070D0080B47F201206582002077401B53E0040C8
:10071D00F112061DFF120658020691D208D206806C
:10072D009512061DFB12061DFA12061DF94A4B7095
:10073D0006794D7A0A7BFF20022EE53E602A7E0067
:10074D008E827583001204E760060EEE653F70F031
:10075D00C2D5EBC0E0EAC0E0E9C0E0EE1209B6D0C8
:10076D00E0F9D0E0FAD0E0FB1204CEFF60AAEBC0B6
:10077D00E0EAC0E0E9C0E0120658D0E02401F9D06B
:10078D00E03400FAD0E0FBE53F0460DCD53FD980D2
:10079D0087D20280A212099960F7E53F7001041219
:1007AD00012EA93F600DE53F600914F53F120A4087
:1007BD00EF60F3EA30E702F404C3995077EAF425C9
:1007CD003F0430E701E404F53F800D12099960C143
:1007DD00EA053F253F12012EEA783CF630E701E4A9
:1007ED00253F04D53F04200501141209B6E4C0E0ED
:1007FD00120A40783CE6601320E70714F612064013
:10080D00802204F6D0E014C0E07F00120640E53FE0
:10081D006007120637153F800B300503120637D0DF
:10082D00E0020691D0E00480C512099960A0E53F71
:10083D000412012E783CEAF6E53F20050260010422
:05084D0024041209B6AD
:1008520074FF04C0E0120A40120640E53F20050280
:100862006003120637D0E0B53FE87F4512064A78AA
:100872003CE67F2B30E7047F2DF404C0E0120658DB
:10088200D0E075F00A84C0F0120641D0E0120641B1
:10089200020691791080027908C206C2088008D245
:1008A200D5790A8004790AC2D5E53F047002F53F82
:1008B200E4FAFDFEFF12061DFC7B0820011312065E
:1008C2001DFD7B1030000A12061DFE12061DFF7B65
:1008D20020EC3382D592D55013C3E43000069FFF3B
:1008E200E49EFEE42001039DFDE49CFCE4CBF8C2FF
:1008F20001EC700CCFCECDCCE824F8F870F3801761
:10090200C3EF33FFEE33FEED33FDEC33FCEB33FB91
:10091200994002FB0FD8E9EB300105F8D0E0C4485A
:10092200B201C0E00AEC4D4E4F78207B0070C2EA63
:10093200B53F0040BCC0E01209B8D0F0D0E02001C1
:1009420004C4C0E0C4B201C0F0120641D0F0D5F038
:10095200EB02069112059C072E5308955806FF4C90
:1009620006FB4208994F08A14408A149071443080D
:10097200A75507D84608364507A2470A6D50070310
:100982002D07072E072A2B070B230728200A562A92
:1009920006C34800000722E53FB4FF03753F061275
:1009A200061DFC12061DFD12061DFE12061DFF7815
:1009B2003502015D790AA2D5200314300509B91068
:1009C200020404B9080104A2D52006025001042041
:1009D20002689202B53E005034C0E07F2030031915
:1009E2007F30A20272067205500F120A0FC202C2B3
:1009F20006C205C2087F30800F300503E9C0E0124D
:100A02000658300503D0E0F9D0E0B53ECC300517EA
:100A12007F30B9100C1206587F583004077F788057
:100A220003B908031206583002057F2D0206587FCB
:100A3200202008F87F2B2006F322920280CF7F002D
:100A4200B4070050052435F8E6FF22286E756C6C59
:100A52002900D20112061D3001F8C201783E30D5BC
:100A62000108F60206C32D5043495812061D2403FD
:100A7200B405004001E4900A6893120649743A12E0
:0A0A82000649D203753E04020895F0
:1000E400E9D2E7C933E833F892D5EDD2E7CD33EC62
:0700F40033FC5002B2D522DB
:1000FB00EC30E7100FBF000C0EBE00080DBD000466
:10010B000BEB6014A2D5EB13FCED92E7FD2274FF11
:10011B00FCFDFEFF22E480F8A2D574FF13FC7D806A
:03012B00E480EF7E
:10012E00F920E72824F950037907E4F42402FB1898
:10013E00DBFDE624FB5014E9600DE4F618E604F648
:0F014E00B40A08E4F6D9F57401F60A22C2D522E4
:10015D00ED33EC3392D5FA602AB4FF33EDC2E77B71
:10016D00FF60067A017982E4227A01798B20D50429
:10017D007A017986224E614E002B494E46002D495B
:10018D004E4600E47A08F608DAFC7B00740722E894
:10019D00C0E0ECC0E0EDC0E0EEC0E0EFC0E0EA751D
:1001AD00F010A4CAABF075F04DA42BFBE435F0FCB8
:1001BD00EA2410FAEB34C5FBEC34D9FCEDC2E7FFB1
:1001CD0075F056A4F42411C5F0F434C58FF0A42AAB
:1001DD00E5F03BE43CF620E71412048ED0E0FFD0AE
:1001ED00E0FED0E0FDD0E0FC1200098014F4041212
:1001FD00048ED0E0FFD0E0FED0E0FDD0E0FC120395
:10020D0058D0E0F8E6FAEDD2E7CD33EC332482FB9B
:10021D00E4C3CF33CFCE33CECD33CD33DBF37B073A
:10022D0075F00A846004F6081B0AE5F0F6088FF0F5
:10023D00740AA4FFACF08EF0740AA42CFEACF0503E
:10024D00010C8DF0740AA42CFDE435F0F608DBDE0C
:03025D0074072201
:10026000020119E86480F8E933E83360110460F0B2
:10027000ED33EC337009E8FCE9FDEAFEEBFF220404
:1002800060DED3EB9FEA9EE99DE8C2E78CF0C2F7FF
:1002900095F0400CE8CCF8E9CDF9EACEFAEBCFFBCB
:1002A0001200E485D0F05804700320D5B3E8047040
:1002B000075002B2D502012392D5EC0460F7E4CCDA
:1002C000C0E0C398F8603B94186008400DD0E0FB94
:1002D0000200FBE4FBFAC9FC8028E830E406E4C92C
:1002E000FBE4CAFCE830E305E4C9CACBFCE85407E8
:1002F0006010F8C3E913F9EA13FAEB13FBEC13FCF3
:10030000D8F130F52FC3E49CFCEF9BFFEE9AFEED95
:1003100099FDD0E0FBEF4E4D4C701222DB03020141
:1003200020EC2CFCEF33FFEE33FEED33FDED30E738
:10033000EB0200FBEF2BFFEE3AFEED39FDD0E0FBC8
:1003400050130BBB0003020123ED13FDEE13FEEF70
:0803500013FFEC13FC0200FB9B
:10035800EC4D6011E8497017ED33EC3304600DE49F
:10036800FCFFFEFD22E933E8330470F8020119129C
:1003780000E458046009E4CC24815006285009029E
:100388000123284003020120C0E0EB4A7044B980F1
:1003980006D0E0FB02010FEF4E701CBD8008EBFF9A
:1003A800EAFEE9FD80EBE98DF0A4FEE5F0020441E8
:1003B800E9CDF9EAFEEBFFEF89F0A4FCE5F0CE8980
:1003C800F0A42EFFE435F0CD89F0A42DFEE435F03D
:1003D8008067EF4E7005BD80D780C3EF8BF0A4AC6B
:1003E800F0EE8BF0A42CFCE435F0F8EF8AF0A42CA6
:1003F800E5F038FCE433CB8DF0A42CFCE5F03BF8B9
:10040800EE8AF0A42CFCE5F038F8E433CF89F0A4A8
:100418002CFCE5F038CF3400CE89F0A42FFFE5F0AE
:100428003EFEE433C98DF0A42EFEE5F039CD8AF006
:10043800A42FFFE5F03EFEE43DFD33D0E0FB50077E
:100448000BBB000F020123EC2CFCEF33FFEE33FE55
:06045800ED33FD0200FB84
:10045E003F8000004120000042C80000447A0000A6
:10046E00461C400047C35000497424004B18968028
:10047E004CBEBC205A0E1BCA6753C21C749DC5AE1F
:10048E00FB60065407601C23231204BCEB54386037
:10049E00091204A81204B7120358ECF8EDF9EEFA9B
:1004AE00EFCB22EB1204B780F1543803241C9004D6
:1004BE005EFE93FC0EEE93FD0EEE930ECE93FF2298
:100A9800020B96E493A3F8E493A34003F68001F2D3
:100AA80008DFF48029E493A3F85407240CC8C3335F
:100AB800C4540F4420C8834004F456800146F6DF2E
:100AC800E4800B0102040810204080900CEEE47EC4
:100AD800019360BCA3FF543F30E509541FFEE49323
:100AE800A360010ECF54C025E060A840B8E493A3EA
:100AF800FAE493A3F8E493A3C8C582C8CAC583CA15
:100B0800F0A3C8C582C8CAC583CADFE9DEE780BECC
:010CF90000FA
:1004CE00BB010689828A83E0225002E722BBFE022C
:0904DE00E32289828A83E493225F
:1004E700BB010CE58229F582E5833AF583E02250CA
:1004F70006E92582F8E622BBFE06E92582F8E22214
:0D050700E58229F582E5833AF583E493222D
:10051400BB010689828A83F0225002F722BBFE01C6
:02052400F322C0
:10052600F8BB010DE58229F582E5833AF583E8F00B
:10053600225006E92582C8F622BBFE05E92582C8B7
:02054600F2229F
:10054800C2D5EC30E709B2D5E4C39DFDE49CFCEECE
:1005580030E715B2D5E4C39FFFE49EFE1205C8C379
:10056800E49DFDE49CFC80031205C830D507C3E474
:060578009FFFE49EFE223D
:0E057E00C3E49FFFE49EFEE49DFDE49CFC228E
:10058C00FAE6FB0808E6F925F0F618E6CA3AF62270
:10059C00D083D082F8E4937012740193700DA3A3EE
:1005AC0093F8740193F5828883E473740293686002
:0605BC00EFA3A3A380DF02
:0605C2008A838982E473C4
:1005C800BC000BBE0029EF8DF084FFADF022E4CC17
:1005D800F875F008EF2FFFEE33FEEC33FCEE9DECE0
:1005E800984005FCEE9DFE0FD5F0E9E4CEFD22ED26
:1005F800F8F5F0EE8420D21CFEADF075F008EF2F70
:10060800FFED33FD4007985006D5F0F222C398FD60
:050618000FD5F0EA22FD
:00000001FF
