:03000000020941B1
:0C094100787FE4F6D8FD75810A02088B6F
:1008CF008F0AC281D280EF3395E0FE120913C280E6
:1008DF00AF0AEF3395E0FEC374289FFFE49EFE023C
:0208EF000913EB
:1008F1008F0AC280D281EF3395E0FE120913C281C3
:10090100AF0AEF3395E0FEC374289FFFE49EFE0219
:020911000913C8
:10088B00750801E4F509AF081208CF0509C3E5099E
:10089B006480949940F00508D3E508648094A840DF
:1008AB00E2750801D3E508648094A850D3E4F509F8
:1008BB00AF081208F10509C3E5096480949940F06B
:0408CB00050880E0BC
:10091300EF1F70011EC3EE64809480400BE4FDED75
:08092300C3947350EB0D80F743
:01092B0022A9
:10092C007C007D0C120800EF1F70011EC3EE64806A
:05093C00948050F3223D
:10080000C2D5EC30E709B2D5E4C39DFDE49CFCEE13
:1008100030E715B2D5E4C39FFFE49EFE120836C34D
:10082000E49DFDE49CFC800312083630D507C3E448
:060830009FFFE49EFE2282
:10083600BC000BBE0029EF8DF084FFADF022E4CCA6
:10084600F875F008EF2FFFEE33FEEC33FCEE9DEC6F
:10085600984005FCEE9DFE0FD5F0E9E4CEFD22EDB5
:10086600F8F5F0EE8420D21CFEADF075F008EF2FFF
:10087600FFED33FD4007985006D5F0F222C398FDF0
:050886000FD5F0EA228D
:00000001FF
