:0300000002093BB7
:0C093B00787FE4F6D8FD75810A02088B75
:10088B00E4F508F509AF091208C90509E509700275
:10089B000508D394E8E5086480948340E8E4F50800
:1008AB00F509D3E50994E8E5086480948350D1AF4A
:0E08BB00091208EB0509E50970E8050880E45C
:10090D00EF1F70011EC3EE64809480400BE4FDED7B
:08091D00C3947350EB0D80F749
:0109250022AF
:100926007C007D0C120800EF1F70011EC3EE648070
:05093600948050F32243
:1008C9008F0AC281D280EF3395E0FE12090DC280F2
:1008D900AF0AEF3395E0FEC374289FFFE49EFE0242
:0208E900090DF7
:1008EB008F0AC280D281EF3395E0FE12090DC281CF
:1008FB00AF0AEF3395E0FEC374289FFFE49EFE0220
:02090B00090DD4
:10080000C2D5EC30E709B2D5E4C39DFDE49CFCEE13
:1008100030E715B2D5E4C39FFFE49EFE120836C34D
:10082000E49DFDE49CFC800312083630D507C3E448
:060830009FFFE49EFE2282
:10083600BC000BBE0029EF8DF084FFADF022E4CCA6
:10084600F875F008EF2FFFEE33FEEC33FCEE9DEC6F
:10085600984005FCEE9DFE0FD5F0E9E4CEFD22EDB5
:10086600F8F5F0EE8420D21CFEADF075F008EF2FFF
:10087600FFED33FD4007985006D5F0F222C398FDF0
:050886000FD5F0EA228D
:00000001FF
